{
  "_format": "hh-sol-artifact-1",
  "contractName": "LandRegistry",
  "sourceName": "contracts/LandRegistry.sol",
  "abi": [
    {
      "inputs": [],
      "stateMutability": "nonpayable",
      "type": "constructor"
    },
    {
      "anonymous": false,
      "inputs": [
        {
          "indexed": true,
          "internalType": "uint256",
          "name": "landId",
          "type": "uint256"
        },
        {
          "indexed": true,
          "internalType": "address",
          "name": "from",
          "type": "address"
        },
        {
          "indexed": true,
          "internalType": "address",
          "name": "to",
          "type": "address"
        }
      ],
      "name": "LandTransferred",
      "type": "event"
    },
    {
      "inputs": [
        {
          "internalType": "uint256",
          "name": "",
          "type": "uint256"
        }
      ],
      "name": "buildingPermits",
      "outputs": [
        {
          "internalType": "bool",
          "name": "",
          "type": "bool"
        }
      ],
      "stateMutability": "view",
      "type": "function"
    },
    {
      "inputs": [],
      "name": "getAllLands",
      "outputs": [
        {
          "components": [
            {
              "internalType": "uint256",
              "name": "id",
              "type": "uint256"
            },
            {
              "internalType": "string",
              "name": "location",
              "type": "string"
            },
            {
              "internalType": "uint256",
              "name": "size",
              "type": "uint256"
            },
            {
              "internalType": "address",
              "name": "owner",
              "type": "address"
            },
            {
              "internalType": "bool",
              "name": "isVerified",
              "type": "bool"
            }
          ],
          "internalType": "struct LandRegistry.Land[]",
          "name": "",
          "type": "tuple[]"
        }
      ],
      "stateMutability": "view",
      "type": "function"
    },
    {
      "inputs": [],
      "name": "getTotalLands",
      "outputs": [
        {
          "internalType": "uint256",
          "name": "",
          "type": "uint256"
        }
      ],
      "stateMutability": "view",
      "type": "function"
    },
    {
      "inputs": [],
      "name": "getTotalUsers",
      "outputs": [
        {
          "internalType": "uint256",
          "name": "",
          "type": "uint256"
        }
      ],
      "stateMutability": "view",
      "type": "function"
    },
    {
      "inputs": [],
      "name": "getVerifiedLandsCount",
      "outputs": [
        {
          "internalType": "uint256",
          "name": "",
          "type": "uint256"
        }
      ],
      "stateMutability": "view",
      "type": "function"
    },
    {
      "inputs": [
        {
          "internalType": "uint256",
          "name": "_landId",
          "type": "uint256"
        }
      ],
      "name": "grantBuildingPermission",
      "outputs": [],
      "stateMutability": "nonpayable",
      "type": "function"
    },
    {
      "inputs": [
        {
          "internalType": "uint256",
          "name": "",
          "type": "uint256"
        }
      ],
      "name": "lands",
      "outputs": [
        {
          "internalType": "uint256",
          "name": "id",
          "type": "uint256"
        },
        {
          "internalType": "string",
          "name": "location",
          "type": "string"
        },
        {
          "internalType": "uint256",
          "name": "size",
          "type": "uint256"
        },
        {
          "internalType": "address",
          "name": "owner",
          "type": "address"
        },
        {
          "internalType": "bool",
          "name": "isVerified",
          "type": "bool"
        }
      ],
      "stateMutability": "view",
      "type": "function"
    },
    {
      "inputs": [],
      "name": "owner",
      "outputs": [
        {
          "internalType": "address",
          "name": "",
          "type": "address"
        }
      ],
      "stateMutability": "view",
      "type": "function"
    },
    {
      "inputs": [
        {
          "internalType": "string",
          "name": "_location",
          "type": "string"
        },
        {
          "internalType": "uint256",
          "name": "_size",
          "type": "uint256"
        }
      ],
      "name": "registerLand",
      "outputs": [],
      "stateMutability": "nonpayable",
      "type": "function"
    },
    {
      "inputs": [
        {
          "internalType": "string",
          "name": "_name",
          "type": "string"
        },
        {
          "internalType": "string",
          "name": "_role",
          "type": "string"
        }
      ],
      "name": "registerUser",
      "outputs": [],
      "stateMutability": "nonpayable",
      "type": "function"
    },
    {
      "inputs": [],
      "name": "totalLands",
      "outputs": [
        {
          "internalType": "uint256",
          "name": "",
          "type": "uint256"
        }
      ],
      "stateMutability": "view",
      "type": "function"
    },
    {
      "inputs": [],
      "name": "totalUsers",
      "outputs": [
        {
          "internalType": "uint256",
          "name": "",
          "type": "uint256"
        }
      ],
      "stateMutability": "view",
      "type": "function"
    },
    {
      "inputs": [
        {
          "internalType": "address",
          "name": "_to",
          "type": "address"
        },
        {
          "internalType": "uint256",
          "name": "_landId",
          "type": "uint256"
        }
      ],
      "name": "transferLand",
      "outputs": [],
      "stateMutability": "nonpayable",
      "type": "function"
    },
    {
      "inputs": [
        {
          "internalType": "address",
          "name": "",
          "type": "address"
        }
      ],
      "name": "users",
      "outputs": [
        {
          "internalType": "string",
          "name": "name",
          "type": "string"
        },
        {
          "internalType": "string",
          "name": "role",
          "type": "string"
        },
        {
          "internalType": "bool",
          "name": "isRegistered",
          "type": "bool"
        }
      ],
      "stateMutability": "view",
      "type": "function"
    },
    {
      "inputs": [
        {
          "internalType": "uint256",
          "name": "_landId",
          "type": "uint256"
        }
      ],
      "name": "verifyLand",
      "outputs": [],
      "stateMutability": "nonpayable",
      "type": "function"
    }
  ],
  "bytecode": "0x608060405234801561001057600080fd5b50336000806101000a81548173ffffffffffffffffffffffffffffffffffffffff021916908373ffffffffffffffffffffffffffffffffffffffff160217905550611cd9806100606000396000f3fe608060405234801561001057600080fd5b50600436106100f55760003560e01c8063a87430ba11610097578063c09414a311610066578063c09414a314610266578063ce924ed914610282578063e261f1e51461029e578063f9c43bdf146102d2576100f5565b8063a87430ba146101dc578063b3f40d6a1461020e578063b7b6e5431461022a578063bff1f9e114610248576100f5565b806380218a1e116100d357806380218a1e14610152578063842e7dba146101825780638da5cb5b146101a05780639be572f6146101be576100f5565b80631d2e4afd146100fa5780631d8de063146101165780634e4d8b8114610134575b600080fd5b610114600480360381019061010f9190611076565b6102ee565b005b61011e610446565b60405161012b9190611107565b60405180910390f35b61013c61044c565b6040516101499190611107565b60405180910390f35b61016c6004803603810190610167919061114e565b6104b6565b6040516101799190611196565b60405180910390f35b61018a6104d6565b6040516101979190611107565b60405180910390f35b6101a86104e0565b6040516101b591906111f2565b60405180910390f35b6101c6610504565b6040516101d39190611107565b60405180910390f35b6101f660048036038101906101f19190611239565b61050e565b604051610205939291906112e5565b60405180910390f35b6102286004803603810190610223919061132a565b610655565b005b61023261083c565b60405161023f9190611519565b60405180910390f35b610250610a1f565b60405161025d9190611107565b60405180910390f35b610280600480360381019061027b919061114e565b610a25565b005b61029c6004803603810190610297919061153b565b610b3b565b005b6102b860048036038101906102b3919061114e565b610cd1565b6040516102c9959493929190611597565b60405180910390f35b6102ec60048036038101906102e7919061114e565b610dbc565b005b600560003373ffffffffffffffffffffffffffffffffffffffff1673ffffffffffffffffffffffffffffffffffffffff16815260200190815260200160002060020160009054906101000a900460ff161561037e576040517f08c379a00000000000000000000000000000000000000000000000000000000081526004016103759061163d565b60405180910390fd5b604051806060016040528083815260200182815260200160011515815250600560003373ffffffffffffffffffffffffffffffffffffffff1673ffffffffffffffffffffffffffffffffffffffff16815260200190815260200160002060008201518160000190816103f09190611869565b5060208201518160010190816104069190611869565b5060408201518160020160006101000a81548160ff0219169083151502179055509050506002600081548092919061043d9061196a565b91905055505050565b60015481565b600080600090506000600190505b60015481116104ae576004600082815260200190815260200160002060030160149054906101000a900460ff161561049b5781806104979061196a565b9250505b80806104a69061196a565b91505061045a565b508091505090565b60036020528060005260406000206000915054906101000a900460ff1681565b6000600154905090565b60008054906101000a900473ffffffffffffffffffffffffffffffffffffffff1681565b6000600254905090565b60056020528060005260406000206000915090508060000180546105319061168c565b80601f016020809104026020016040519081016040528092919081815260200182805461055d9061168c565b80156105aa5780601f1061057f576101008083540402835291602001916105aa565b820191906000526020600020905b81548152906001019060200180831161058d57829003601f168201915b5050505050908060010180546105bf9061168c565b80601f01602080910402602001604051908101604052809291908181526020018280546105eb9061168c565b80156106385780601f1061060d57610100808354040283529160200191610638565b820191906000526020600020905b81548152906001019060200180831161061b57829003601f168201915b5050505050908060020160009054906101000a900460ff16905083565b3373ffffffffffffffffffffffffffffffffffffffff166004600083815260200190815260200160002060030160009054906101000a900473ffffffffffffffffffffffffffffffffffffffff1673ffffffffffffffffffffffffffffffffffffffff16146106f9576040517f08c379a00000000000000000000000000000000000000000000000000000000081526004016106f090611a24565b60405180910390fd5b600560008373ffffffffffffffffffffffffffffffffffffffff1673ffffffffffffffffffffffffffffffffffffffff16815260200190815260200160002060020160009054906101000a900460ff16610788576040517f08c379a000000000000000000000000000000000000000000000000000000000815260040161077f90611ab6565b60405180910390fd5b816004600083815260200190815260200160002060030160006101000a81548173ffffffffffffffffffffffffffffffffffffffff021916908373ffffffffffffffffffffffffffffffffffffffff1602179055508173ffffffffffffffffffffffffffffffffffffffff163373ffffffffffffffffffffffffffffffffffffffff16827f1080b2f211753e5090f26ef7ffdc6bb3e66a125c7290200d10b502160bb1f56660405160405180910390a45050565b6060600060015467ffffffffffffffff81111561085c5761085b610f4b565b5b60405190808252806020026020018201604052801561089557816020015b610882610ed5565b81526020019060019003908161087a5790505b50905060005b600154811015610a1757600460006001836108b69190611ad6565b81526020019081526020016000206040518060a0016040529081600082015481526020016001820180546108e99061168c565b80601f01602080910402602001604051908101604052809291908181526020018280546109159061168c565b80156109625780601f1061093757610100808354040283529160200191610962565b820191906000526020600020905b81548152906001019060200180831161094557829003601f168201915b50505050508152602001600282015481526020016003820160009054906101000a900473ffffffffffffffffffffffffffffffffffffffff1673ffffffffffffffffffffffffffffffffffffffff1673ffffffffffffffffffffffffffffffffffffffff1681526020016003820160149054906101000a900460ff1615151515815250508282815181106109f9576109f8611b0a565b5b60200260200101819052508080610a0f9061196a565b91505061089b565b508091505090565b60025481565b60008054906101000a900473ffffffffffffffffffffffffffffffffffffffff1673ffffffffffffffffffffffffffffffffffffffff163373ffffffffffffffffffffffffffffffffffffffff1614610ab3576040517f08c379a0000000000000000000000000000000000000000000000000000000008152600401610aaa90611bab565b60405180910390fd5b6000600460008381526020019081526020016000206000015403610b0c576040517f08c379a0000000000000000000000000000000000000000000000000000000008152600401610b0390611c17565b60405180910390fd5b60016003600083815260200190815260200160002060006101000a81548160ff02191690831515021790555050565b600560003373ffffffffffffffffffffffffffffffffffffffff1673ffffffffffffffffffffffffffffffffffffffff16815260200190815260200160002060020160009054906101000a900460ff16610bca576040517f08c379a0000000000000000000000000000000000000000000000000000000008152600401610bc190611c83565b60405180910390fd5b60016000815480929190610bdd9061196a565b91905055506040518060a0016040528060015481526020018381526020018281526020013373ffffffffffffffffffffffffffffffffffffffff16815260200160001515815250600460006001548152602001908152602001600020600082015181600001556020820151816001019081610c589190611869565b506040820151816002015560608201518160030160006101000a81548173ffffffffffffffffffffffffffffffffffffffff021916908373ffffffffffffffffffffffffffffffffffffffff16021790555060808201518160030160146101000a81548160ff0219169083151502179055509050505050565b6004602052806000526040600020600091509050806000015490806001018054610cfa9061168c565b80601f0160208091040260200160405190810160405280929190818152602001828054610d269061168c565b8015610d735780601f10610d4857610100808354040283529160200191610d73565b820191906000526020600020905b815481529060010190602001808311610d5657829003601f168201915b5050505050908060020154908060030160009054906101000a900473ffffffffffffffffffffffffffffffffffffffff16908060030160149054906101000a900460ff16905085565b60008054906101000a900473ffffffffffffffffffffffffffffffffffffffff1673ffffffffffffffffffffffffffffffffffffffff163373ffffffffffffffffffffffffffffffffffffffff1614610e4a576040517f08c379a0000000000000000000000000000000000000000000000000000000008152600401610e4190611bab565b60405180910390fd5b6000600460008381526020019081526020016000206000015403610ea3576040517f08c379a0000000000000000000000000000000000000000000000000000000008152600401610e9a90611c17565b60405180910390fd5b60016004600083815260200190815260200160002060030160146101000a81548160ff02191690831515021790555050565b6040518060a00160405280600081526020016060815260200160008152602001600073ffffffffffffffffffffffffffffffffffffffff1681526020016000151581525090565b6000604051905090565b600080fd5b600080fd5b600080fd5b600080fd5b6000601f19601f8301169050919050565b7f4e487b7100000000000000000000000000000000000000000000000000000000600052604160045260246000fd5b610f8382610f3a565b810181811067ffffffffffffffff82111715610fa257610fa1610f4b565b5b80604052505050565b6000610fb5610f1c565b9050610fc18282610f7a565b919050565b600067ffffffffffffffff821115610fe157610fe0610f4b565b5b610fea82610f3a565b9050602081019050919050565b82818337600083830152505050565b600061101961101484610fc6565b610fab565b90508281526020810184848401111561103557611034610f35565b5b611040848285610ff7565b509392505050565b600082601f83011261105d5761105c610f30565b5b813561106d848260208601611006565b91505092915050565b6000806040838503121561108d5761108c610f26565b5b600083013567ffffffffffffffff8111156110ab576110aa610f2b565b5b6110b785828601611048565b925050602083013567ffffffffffffffff8111156110d8576110d7610f2b565b5b6110e485828601611048565b9150509250929050565b6000819050919050565b611101816110ee565b82525050565b600060208201905061111c60008301846110f8565b92915050565b61112b816110ee565b811461113657600080fd5b50565b60008135905061114881611122565b92915050565b60006020828403121561116457611163610f26565b5b600061117284828501611139565b91505092915050565b60008115159050919050565b6111908161117b565b82525050565b60006020820190506111ab6000830184611187565b92915050565b600073ffffffffffffffffffffffffffffffffffffffff82169050919050565b60006111dc826111b1565b9050919050565b6111ec816111d1565b82525050565b600060208201905061120760008301846111e3565b92915050565b611216816111d1565b811461122157600080fd5b50565b6000813590506112338161120d565b92915050565b60006020828403121561124f5761124e610f26565b5b600061125d84828501611224565b91505092915050565b600081519050919050565b600082825260208201905092915050565b60005b838110156112a0578082015181840152602081019050611285565b60008484015250505050565b60006112b782611266565b6112c18185611271565b93506112d1818560208601611282565b6112da81610f3a565b840191505092915050565b600060608201905081810360008301526112ff81866112ac565b9050818103602083015261131381856112ac565b90506113226040830184611187565b949350505050565b6000806040838503121561134157611340610f26565b5b600061134f85828601611224565b925050602061136085828601611139565b9150509250929050565b600081519050919050565b600082825260208201905092915050565b6000819050602082019050919050565b61139f816110ee565b82525050565b600082825260208201905092915050565b60006113c182611266565b6113cb81856113a5565b93506113db818560208601611282565b6113e481610f3a565b840191505092915050565b6113f8816111d1565b82525050565b6114078161117b565b82525050565b600060a0830160008301516114256000860182611396565b506020830151848203602086015261143d82826113b6565b91505060408301516114526040860182611396565b50606083015161146560608601826113ef565b50608083015161147860808601826113fe565b508091505092915050565b600061148f838361140d565b905092915050565b6000602082019050919050565b60006114af8261136a565b6114b98185611375565b9350836020820285016114cb85611386565b8060005b8581101561150757848403895281516114e88582611483565b94506114f383611497565b925060208a019950506001810190506114cf565b50829750879550505050505092915050565b6000602082019050818103600083015261153381846114a4565b905092915050565b6000806040838503121561155257611551610f26565b5b600083013567ffffffffffffffff8111156115705761156f610f2b565b5b61157c85828601611048565b925050602061158d85828601611139565b9150509250929050565b600060a0820190506115ac60008301886110f8565b81810360208301526115be81876112ac565b90506115cd60408301866110f8565b6115da60608301856111e3565b6115e76080830184611187565b9695505050505050565b7f5573657220616c72656164792072656769737465726564000000000000000000600082015250565b6000611627601783611271565b9150611632826115f1565b602082019050919050565b600060208201905081810360008301526116568161161a565b9050919050565b7f4e487b7100000000000000000000000000000000000000000000000000000000600052602260045260246000fd5b600060028204905060018216806116a457607f821691505b6020821081036116b7576116b661165d565b5b50919050565b60008190508160005260206000209050919050565b60006020601f8301049050919050565b600082821b905092915050565b60006008830261171f7fffffffffffffffffffffffffffffffffffffffffffffffffffffffffffffffff826116e2565b61172986836116e2565b95508019841693508086168417925050509392505050565b6000819050919050565b600061176661176161175c846110ee565b611741565b6110ee565b9050919050565b6000819050919050565b6117808361174b565b61179461178c8261176d565b8484546116ef565b825550505050565b600090565b6117a961179c565b6117b4818484611777565b505050565b5b818110156117d8576117cd6000826117a1565b6001810190506117ba565b5050565b601f82111561181d576117ee816116bd565b6117f7846116d2565b81016020851015611806578190505b61181a611812856116d2565b8301826117b9565b50505b505050565b600082821c905092915050565b600061184060001984600802611822565b1980831691505092915050565b6000611859838361182f565b9150826002028217905092915050565b61187282611266565b67ffffffffffffffff81111561188b5761188a610f4b565b5b611895825461168c565b6118a08282856117dc565b600060209050601f8311600181146118d357600084156118c1578287015190505b6118cb858261184d565b865550611933565b601f1984166118e1866116bd565b60005b82811015611909578489015182556001820191506020850194506020810190506118e4565b868310156119265784890151611922601f89168261182f565b8355505b6001600288020188555050505b505050505050565b7f4e487b7100000000000000000000000000000000000000000000000000000000600052601160045260246000fd5b6000611975826110ee565b91507fffffffffffffffffffffffffffffffffffffffffffffffffffffffffffffffff82036119a7576119a661193b565b5b600182019050919050565b7f596f7520617265206e6f7420746865206f776e6572206f662074686973206c6160008201527f6e642e0000000000000000000000000000000000000000000000000000000000602082015250565b6000611a0e602383611271565b9150611a19826119b2565b604082019050919050565b60006020820190508181036000830152611a3d81611a01565b9050919050565b7f54686520726563697069656e74206973206e6f7420612072656769737465726560008201527f6420757365722e00000000000000000000000000000000000000000000000000602082015250565b6000611aa0602783611271565b9150611aab82611a44565b604082019050919050565b60006020820190508181036000830152611acf81611a93565b9050919050565b6000611ae1826110ee565b9150611aec836110ee565b9250828201905080821115611b0457611b0361193b565b5b92915050565b7f4e487b7100000000000000000000000000000000000000000000000000000000600052603260045260246000fd5b7f4f6e6c79206f776e65722063616e20706572666f726d2074686973206163746960008201527f6f6e000000000000000000000000000000000000000000000000000000000000602082015250565b6000611b95602283611271565b9150611ba082611b39565b604082019050919050565b60006020820190508181036000830152611bc481611b88565b9050919050565b7f4c616e6420646f6573206e6f7420657869737400000000000000000000000000600082015250565b6000611c01601383611271565b9150611c0c82611bcb565b602082019050919050565b60006020820190508181036000830152611c3081611bf4565b9050919050565b7f55736572206e6f74207265676973746572656400000000000000000000000000600082015250565b6000611c6d601383611271565b9150611c7882611c37565b602082019050919050565b60006020820190508181036000830152611c9c81611c60565b905091905056fea2646970667358221220c9bb6e59cd07e0aac577d6668d73a24a14198644e10918351ab0377a57d3b93f64736f6c63430008140033",
  "linkReferences": {},
  "deployedLinkReferences": {}
}